:020000021000EC
:1000000000000420A5BE0100DDBE0100E1A1010049
:10001000E1BE0100EDA10100F3A10100000000001C
:100020000000000000000000000000009D4B0100E7
:10003000E9BE010000000000374C0100474C010000
:100040002DFC0100B5700100EFBE0100EFBE010004
:10005000EFBE0100EFBE0100EFBE0100EFBE0100E8
:10006000EFBE0100EFBE0100EFBE0100EFBE0100D8
:10007000EFBE0100C1FD0100EFBE0100CD70010027
:10008000EFBE0100EFBE0100EFBE0100EFBE0100B8
:10009000EFBE0100EFBE0100EFBE0100EFBE0100A8
:1000A000EFBE0100EFBE0100EFBE0100EFBE010098
:1000B000EFBE0100EFBE01000000000000000000E4
:1000C000EFBE0100EFBE0100EFBE0100EFBE010078
:1000D000EFBE0100EFBE0100EFBE0100EFBE010068
:1000E000EFBE0100EFBE0100EFBE01000000000006
:1000F00000000000EFBE010000000000EFBE0100A4
:1001000010B5054C237833B9044B13B10448AFF351
:1001100000800123237010BD10100020000000009B
:100120001CAC020008B5034B1BB103490348AFF3F5
:10013000008008BD00000000141000201CAC02006C
:10014000154B002B08BF134B9D46A3F5803A0021A9
:100150008B460F461348144A121A13F071F80F4BCE
:10016000002B00D098470E4B002B00D09847002062
:10017000002104000D000D48002802D00C480AF0B0
:10018000B7FD12F06FFB2000290006F0CFFD0AF04A
:10019000ACFD00BF000008000000042000000000CB
:1001A000896C010010100020D8B60020F1AC0100CD
:1001B00000000000154B164993ED006A154B91EDB8
:1001C000007AD3ED016A144AF7EE007A76EE876A78
:1001D00077EEC67A93ED027AD2ED005A27EE877A4F
:1001E000A6EE867AD3ED036A83ED067A67EEA67AE9
:1001F000D3ED006A81ED007A76EEA56AE6EE267A06
:10020000C3ED077AC2ED007A704700BF04020020F8
:10021000501000202C1000204C1000202DE9F3413C
:1002200007460068594C5A4E884610F001FE0625D4
:1002300002460B460095204604F0CCFA3146204693
:1002400004F0CAF9786810F0F3FD009502460B46F9
:10025000204604F0BFFA3146204604F0BDF9B868E4
:100260004C4F10F0E5FD009502460B46204604F089
:10027000B1FA3146204604F0AFF9B86810F0D8FD65
:10028000009502460B46204604F0A4FA314620466B
:1002900004F0A2F9F86810F0CBFD009502460B4679
:1002A000204604F097FA3146204604F095F9D8F834
:1002B000000010F0BDFD009502460B46204604F0FC
:1002C00089FA3146204604F087F9D8F8040010F086
:1002D000AFFD009502460B46204604F07BFA3146FE
:1002E000204604F079F9D8F8080010F0A1FD009537
:1002F00002460B46204604F06DFA3146204604F0D3
:100300006BF9786810F094FD009502460B46204684
:1003100004F060FA3146204604F05EF9386810F0C7
:1003200087FD009502460B46204604F053FA3146FD
:10033000204604F051F9B86910F07AFD00950246A4
:100340000B46204604F046FA3146204604F044F9B4
:10035000F86910F06DFD009502460B46204604F04A
:1003600039FA3146204604F037F9386910F060FD5B
:10037000009502460B46204604F02EFA0649204618
:1003800002B0BDE8F04104F027B900BF8C1900208D
:10039000106802002C100020EB9E020010B54FF4F4
:1003A00016510948084C02F043FD204602F096FD24
:1003B0000028FAD0054800F061FD00B9FEE704F01E
:1003C00017FB034B186010BD8C190020581000203B
:1003D000541000201FB504460F4800F052F9C8B170
:1003E00003AB02AA01A90C4800F003F99FED0B6AC8
:1003F0009DED027ADDED037ADDED016A27EE067AE6
:1004000067EE867A66EE866A84ED017AC4ED006A4C
:10041000C4ED027A04B010BD58100020000000396D
:100420001FB50446084800F041F958B103AB02AAD1
:1004300001A9054800F001F9019B2360029B63605C
:10044000039BA36004B010BD581000200000000002
:10045000F8B505462DED028B0E4604F0C9FAD5ED30
:10046000027A95ED017A364B95ED008A186067EEB9
:10047000A77AB1EE488AE7EE077A324C17EE900A77
:1004800011F020FA014618EE100A11F019FA10F0D6
:10049000CFFC00222C4B10F023FD27A3D3E900232F
:1004A00010F048FE10F0ECFFA060D5ED027A95ED5B
:1004B000007A6F6867EEA77AE7EE077A17EE900A80
:1004C00011F000FA0146384611F0FAF910F0B0FCCC
:1004D00000221D4B10F004FD17A3D3E9002310F0F8
:1004E00029FE10F0CDFFE060184800F015F907EE86
:1004F000900AB7EE007AC7EE277ABDEC028BD6EDF4
:10050000026A94ED027AA6EEA77A84ED047AD6ED1B
:10051000026A94ED037AA6EEA77A84ED057A96ED49
:10052000027A27EE277A84ED007A96ED017A67EE5B
:10053000277AC4ED017AF8BD182D4454FB210940F7
:10054000541000202C10002000806640581000201D
:100550007FB56846FFF73EFF03A8FFF761FF03A9D9
:100560006846FFF775FF694603A8FFF723FE03A956
:100570006846FFF753FE07B05DF804FB70472DE9AE
:10058000F041804617461C460E4629B3531E1F2BCA
:1005900022D82068257903682946DB6A98472068B5
:1005A000036841461B689847206803685B6B98475F
:1005B00090B9206803683A462946DB6B9847354670
:1005C000C7B2AB1B9BB29F420AD9206803685B6924
:1005D000984705F8010BF4E74FF0FF30BDE8F081D4
:1005E0000020FBE70B6803604B6843608B68836007
:1005F000704770B58AB00E4600F1380101A81C465C
:10060000154601F071F8BDF9043007EE903ABDF9D6
:100610000630F8EEE77AC6ED007A07EE903ABDF9BB
:100620000830F8EEE77AC5ED007A07EE903AF8EE7A
:10063000E77AC4ED007A0AB070BD70B58AB00E4694
:1006400000F1380101A81C46154601F04DF8BDF92E
:10065000103007EE903ABDF91230F8EEE77AC6EDA9
:10066000007A07EE903ABDF91430F8EEE77AC5ED5E
:10067000007A07EE903AF8EEE77AC4ED007A0AB015
:1006800070BD13B5044600F138010DF1060000F00D
:10069000AAFFBDF80630B4F8CC00184300F40040BF
:1006A000C3F30E03A4F8CC3002B010BD13B504465A
:1006B00000F138010DF1060000F095FFBDF806309D
:1006C000B4F8CC00184300F4804023F48043A4F82D
:1006D000CC3002B010BD000000B58FB00EAB0022D0
:1006E00003F8342D012100F13802184601F0ACFC6A
:1006F0009DF806300120984010F088FB04A3D3E950
:10070000002310F0EDFB10F0BBFE0FB05DF804FB12
:10071000F6285C8FC2F5D83F10B58EB00EAB012421
:1007200003F8344D00F138022146184601F08CFCE4
:100730009DF8060004FA00F010F068FB04A3D3E96A
:10074000002310F0CDFB10F09BFE0EB010BD00BFDB
:10075000F6285C8FC2F5D83F73B50E4600F1A001B4
:1007600068461C46154601F0ACFFBDF9003007EEA7
:10077000903ABDF90230F8EEE77AC6ED007A07EE5E
:10078000903ABDF90430F8EEE77AC5ED007A07EE4D
:10079000903AF8EEE77AC4ED007A02B070BD10B579
:1007A0000446A03001F0D3FFB4F8C80000F4807014
:1007B00010BD00007FB500F1A00101A801F042FFCB
:1007C0009DF80620072A9BBF034B03EB8203002002
:1007D000186807B05DF804FB1468020030B59FB0DC
:1007E0004FF480734FF48470ADF800304FF0011374
:1007F000012540F201120193ADF812000023ADF87B
:10080000460001A80C46ADF808508DF81030ADF840
:1008100014208DF84450ADF848208DF84A3000F08F
:1008200070FE80B922462946042001F02FF850B905
:100830002246022104A801F0A1FA20B92246022191
:10084000684600F0EDFE1FB030BD7FB5002301A863
:100850008DF8053001F0C3FE07B05DF804FB04F02D
:10086000DBB808B501210D2004F032F900210D207C
:1008700004F06CF9642004F0CDF801210D2004F09F
:1008800065F9642004F0C6F8F0E7F8B507461546A8
:100890001E460C46E9B1531E1F2B1AD83068317919
:1008A0000368DB6A98473068036839461B689847D5
:1008B00025443068A542036804D01B6814F8011B66
:1008C0009847F6E75B6B9847003018BF012040421D
:1008D000F8BD4FF0FF30FBE7CB68C3600BB15B683E
:1008E00018477047C3680BB19B68184770470000F2
:1008F00010B5044B044640F80C3BFFF7F3FF2046CD
:1009000010BD00BFA86B020030B5846887B00D46EB
:10091000002C00F0968201F12203222B00F2828249
:10092000DFE813F070026002500240023002200241
:1009300010020002F001E001D0019001800170017D
:100940006001500140013001200110010001F00060
:10095000E000D000C000B000A00090008000700057
:1009600060005000400023008F02BE4903A803F03E
:100970008BFF0A224FF0FF31684603F0A4FF69465F
:1009800003A803F0E5FFB84903F0EEFF0146204657
:1009900003F030FE684603F02CFF03A803F029FFA4
:1009A000FFF75FFFAF4903A803F06EFF0A226FF065
:1009B0000101684603F087FF694603A803F0C8FFFA
:1009C000AA49E1E7A74903A803F05EFF0A226FF0F6
:1009D0000201684603F077FF694603A803F0B8FFF9
:1009E000A349D1E79F4903A803F04EFF0A226FF005
:1009F0000301684603F067FF694603A803F0A8FFF8
:100A00009C49C1E7974903A803F03EFF0A226FF013
:100A10000401684603F057FF694603A803F098FFF6
:100A20009549B1E78F4903A803F02EFF0A226FF022
:100A30000501684603F047FF694603A803F088FFF5
:100A40008E49A1E7874903A803F01EFF0A226FF031
:100A50000601684603F037FF694603A803F078FFF4
:100A6000874991E77F4903A803F00EFF0A226FF040
:100A70000701684603F027FF694603A803F068FFF3
:100A8000804981E7774903A803F0FEFE0A226FF050
:100A90000801684603F017FF694603A803F058FFF2
:100AA000794971E76F4903A803F0EEFE0A226FF05F
:100AB0000901684603F007FF694603A803F048FFF1
:100AC000724961E7674903A803F0DEFE0A226FF06E
:100AD0000A01684603F0F7FE694603A803F038FFF1
:100AE0006B4951E75F4903A803F0CEFE0A226FF07D
:100AF0000B01684603F0E7FE694603A803F028FFF0
:100B0000644941E7574903A803F0BEFE0A226FF08B
:100B10000C01684603F0D7FE694603A803F018FFEE
:100B20005D4931E74F4903A803F0AEFE0A226FF09A
:100B30000D01684603F0C7FE694603A803F008FFED
:100B4000564921E7474903A803F09EFE0A226FF0A9
:100B50000E01684603F0B7FE694603A803F0F8FEED
:100B60004F4911E73F4903A803F08EFE0A226FF0B8
:100B70000F01684603F0A7FE694603A803F0E8FEEC
:100B8000484901E7374903A803F07EFE0A226FF0C7
:100B90001001684603F097FE694603A803F0D8FEEB
:100BA0004149F1E62F4903A803F06EFE0A226FF0D7
:100BB0001101684603F087FE694603A803F0C8FEEA
:100BC0003A49E1E6274903A803F05EFE0A226FF0E6
:100BD0001201684603F077FE694603A803F0B8FEE9
:100BE0003349D1E61F4903A803F04EFE0A226FF0F5
:100BF0001301684603F067FE694603A803F0A8FEE8
:100C00002C49C1E6174903A803F03EFE0A226FF003
:100C10001401684603F057FE694603A803F098FEE6
:100C20002549B1E60F4903A803F02EFE0A226FF012
:100C30001501684603F047FE694603A803F088FEE5
:100C40001E49A1E6074903A803F01EFE0A226FF021
:100C50001601684603F037FE694603A803F078FEE4
:100C6000174991E63B68020043680200546802009D
:100C70006E6802008368020094680200B468020093
:100C8000D3680200F86802000B6902002B690200B9
:100C90003D690200556902006F6902009669020011
:100CA000BB690200CF690200E4690200F869020032
:100CB000196A0200306A0200426A0200556A0200A4
:100CC000636A0200604903A803F0DEFD0A226FF0A8
:100CD0001701684603F0F7FD694603A803F038FEE4
:100CE0005A4951E6584903A803F0CEFD0A226FF095
:100CF0001801684603F0E7FD694603A803F028FEE3
:100D0000534941E6504903A803F0BEFD0A226FF0A3
:100D10001901684603F0D7FD694603A803F018FEE1
:100D20004C4931E6484903A803F0AEFD0A226FF0B2
:100D30001A01684603F0C7FD694603A803F008FEE0
:100D4000454921E6404903A803F09EFD0A226FF0C1
:100D50001B01684603F0B7FD694603A803F0F8FDE0
:100D60003E4911E6384903A803F08EFD0A226FF0D0
:100D70001C01684603F0A7FD694603A803F0E8FDDF
:100D8000374901E6304903A803F07EFD0A226FF0DF
:100D90001D01684603F097FD694603A803F0D8FDDE
:100DA0003049F1E5284903A803F06EFD0A226FF0EF
:100DB0001E01684603F087FD694603A803F0C8FDDD
:100DC0002949E1E5204903A803F05EFD0A226FF0FE
:100DD0001F01684603F077FD694603A803F0B8FDDC
:100DE0002249D1E5184903A803F04EFD0A226FF00D
:100DF0002001684603F067FD694603A803F0A8FDDB
:100E00001B49C1E5104903A803F03EFD0A226FF01B
:100E10002101684603F057FD694603A803F098FDD9
:100E20001449B1E5084903A803F02EFD0A2229461A
:100E3000684603F048FD694603A803F089FD0E49A2
:100E4000A2E507B030BD00BF3B680200816A020026
:100E5000A16A0200AE6A0200BF6A0200CF6A020005
:100E6000E86A0200036B02001B6B0200336B020096
:100E70004D6B02006D6B0200866B020070B504467C
:100E80004068284E0368DB69984704F1240226482D
:100E9000E2631E2268232549A4F84620002201258A
:100EA000C4E92B6084F838302667A16704F138065E
:100EB000A26484F828306268C4F8B410102304F1E6
:100EC0002C016262E26284F8A03084F830306067FE
:100ED000C4F8A41084F8415084F8A150304601F0C1
:100EE000A9F901462046FFF70FFD236831469B6AAA
:100EF0002046984704F1A00601462046FFF704FD6E
:100F0000304601F0E8FA01462046FFF7FDFC236871
:100F100031465B6A2046984701462046FFF7F4FCBD
:100F2000257770BD7F0501008B0801005F08010077
:100F300073B5224C224E234D01220B21204606F090
:100F4000FFFA2046204C2149324609F0CCFE00220F
:100F50004FF40271204608F0D3FA32461C4920466D
:100F6000002409F0C0FE1B4B2B60214605F1400018
:100F70002C610AF0FFFA05F154000AF09BFA164BB7
:100F80000093284623464FF4407228210AF08CFB38
:100F900032461249284609F0A6FE1148114B03605B
:100FA0001149124B846032468461047704624360C5
:100FB00002B0BDE8704009F096BE00BF28110020C5
:100FC00000020020B011002054110020F57401002F
:100FD0001F9501008CA5020034680200E1B70100F2
:100FE00058100020A86B0200F108010060150020D5
:100FF0004A780B7843EA02230380CA788B7843EA65
:10100000022343804A790B7943EA022383807047A5
:1010100082B00388ADF800304388ADF80230838891
:10102000ADF8043091F8272091F824305B00E2B944
:1010300002AA134433F8083C038091F8253002AA31
:1010400002EB430391F8282033F9083C9AB9438016
:1010500091F8263002AA02EB430391F8292033F9D4
:10106000083C52B9838002B0704702AA134433F897
:10107000083C5B42E0E75B42E9E75B42F2E748B1EC
:10108000836B3BB1C36B2BB1006CB0FA80F04009AD
:10109000404270474FF0FF3070472DE9F04804465A
:1010A0000025231ADBB2994202D82846BDE8F08811
:1010B00014F8013B012B0FD006D3022B11D0202BAB
:1010C00014D06FF00705ECE7D2E9006746F0010B9A
:1010D000BC46C2E900BCE4E7D2E9006746F0020B77
:1010E000F6E7D2E9006746F0040BF1E7D2E90067C2
:1010F000B34647F0010CECE710B588B104788C4298
:101100003FBF0170197841F00101197001789142D7
:1011100004D902701A7842F002021A70002001E02D
:101120004FF0FF3010BD2DE9F0418046A0B01846C9
:101130000D4616461C46FFF7A2FF50BB49B3637A23
:101140000BB948F08008E27A6368A76B32446946BD
:101150004046B84794F84730A072012B0CBF4FF4BB
:10116000E1700220236C6168984794F90A0098B9ED
:101170002A46511B8BB29E4202D820B0BDE8F081B6
:10118000E37A20AF3B440B4413F8803C02F8013B68
:10119000EFE74FF0FF30F0E76FF00100EDE7000000
:1011A00007B5034601220DF107011B20FFF7BBFF26
:1011B00048B99DF80730C3F38203013BDBB2022B31
:1011C0009CBF024AD05603B05DF804FBD46B02000A
:1011D00013B5002304460846ADF80430FFF74FFF6F
:1011E000B8B90B46022201A94020FFF79CFF70B955
:1011F0009DF80430DA09A270C3F3021203F00F0362
:1012000023709DF80530627003F00303E37002B0B1
:1012100010BD4FF0FF30FAE713B50023044608462F
:10122000ADF80430FFF72BFFE8B90B46022201A905
:101230004220FFF778FFA0B99DF80430DA09A270C8
:10124000C3F380126271C3F3011203F00F03237022
:101250009DF805306270C3F3C00203F00703E2702B
:10126000237102B010BD4FF0FF30FAE7F8B5054624
:1012700018460E461C46FFF702FF20BB19B3637ADF
:101280000BB905F07F056368E76B31462846B84720
:1012900094F84730A072012B0CBF4FF4E17002208C
:1012A000236C616898477C2D06D1337813F00103D5
:1012B00018BF012384F8473094F90A00002818BFAA
:1012C0006FF00100F8BD4FF0FF30FBE773B5154636
:1012D0001E460446A0B1C1F3430249098DF804201B
:1012E0008DF80510022201A95B20FFF7BFFF28B986
:1012F00033462A4621465E20FFF7B8FF02B070BD94
:101300004FF0FF30FAE773B502AC002304F8013D5B
:1013100006460D460B46012221465920FFF703FFE2
:1013200060B99DF8070020F0010030438DF80700F8
:101330002B46012221465920FFF798FF02B070BDCD
:10134000F7B50D4605F10806044600213346012293
:101350000230ADF80410FFF7CFFE002838D1A37893
:10136000671C012B0CBF0322072201463346384677
:10137000FFF7C2FE60BB0C2201212046FFF7BCFE36
:1013800030BB03220146A018FFF7B6FE00BB63780E
:10139000A2781B0103F0700343EAC213227802F023
:1013A0000F0213438DF80430E2789DF8053002F007
:1013B000030223F0030313438DF8053002222B466A
:1013C00001A94020FFF752FF10B92846FFF7E8FEB9
:1013D00003B0F0BD73B50D4605F1080604460021C3
:1013E000334601220230ADF80410FFF785FE0028D5
:1013F00057D101460322601CFFF77EFE002850D122
:1014000001460122601DFFF777FE002849D10D2219
:1014100006212046FFF770FE002842D10146012236
:10142000E01CFFF769FE00283BD104220146A0180A
:10143000FFF762FEA8BB9DF80430A27803F07F039B
:1014400043EAC2136279920102F0400223F04003A2
:1014500013436278120102F0300223F03003134389
:10146000227823F00F0302F00F0213438DF80430AB
:10147000E378DB0003F008029DF8053003F0F00389
:101480001343227902F0070213438DF8053002223C
:101490002B4601A94220FFF7E9FE10B92846FFF7C5
:1014A0007FFE02B070BD37B50023054608460C46E6
:1014B0008DF80730FFF7E3FDF0B90B4601220DF17F
:1014C00007017C20FFF72FFEB0B99DF8070005F05B
:1014D000010520F0010028438DF807002346012272
:1014E0000DF107017C20FFF7C1FE38B99DF80730E8
:1014F00003F0010384F8473003B030BD6FF00C00F7
:10150000FAE773B50023044608460D46ADF80430EB
:101510008DF80630FFF7B3FD00285ED1002C5CD0BB
:101520002678731E022B5BD80B46032201A9532099
:10153000FFF7F9FD00284ED106F0FD03012B1BD16A
:10154000A3785B0003F002029DF8043003F0F90376
:101550001343E278920002F0040213432279D2008E
:1015600002F0080203F0E70313436279120102F06C
:10157000100213438DF80430023E012E1BD8A379CC
:101580005B0003F002029DF8053003F0F9031343FA
:10159000E279920002F004021343227AD20002F0B0
:1015A000080203F0E7031343627A120102F010020B
:1015B00013438DF805309DF80630627823F001035F
:1015C00002F0010213438DF8063003222B4601A9D5
:1015D0005320FFF74BFE02B070BD4FF0FF30FAE72B
:1015E0006FF00B00F7E713B5002304460846ADF88B
:1015F0000430FFF744FD80B97CB10B46022201A9FB
:101600001C20FFF790FD30B99DF805209DF80430AF
:1016100043EA0223238002B010BD4FF0FF30FAE707
:101620002DE9F043174685B00446002200233846D2
:10163000CDE90223FFF723FD002852D1002C50D022
:1016400002AA2046FFF729FD002847D104AE3B46F9
:1016500006F8090D012231467D20DDE90289FFF7F8
:1016600062FD00283AD1002308F0010213431EBF97
:101670009DF8073043F004038DF8073008F00202AC
:10168000002313431EBF9DF8073043F002038DF87B
:10169000073008F00402002313431EBF9DF80730F3
:1016A00043F001038DF80730002209F001031343D2
:1016B00018BF9DF8073008F0070418BF43F008036F
:1016C00009F0010518BF8DF8073054EA050305D06D
:1016D0003B46012231467D20FFF7C8FD05B0BDE83D
:1016E000F0834FF0FF30F9E72DE9F04188B00E4666
:1016F00005460021142203A88DF8071011F0A0FD63
:101700003046FFF7BCFC002840F09880002D00F028
:101710009580334601220DF107017D20FFF703FD7F
:1017200000287DD19DF8074014F0010F14BF4FF041
:1017300008084FF0000814F0040718BF08F1060766
:1017400014F002041CBF08F10604E419B8F1000FFC
:1017500007D0002F75D0002C14BF14220E220420B5
:1017600005E0002F72D0002C5DD106220C203346FC
:1017700003A9FFF7D8FC002852D1ADF808008DF876
:101780000A00B8F1000F0BD00DF10B0205F11703A1
:1017900005F11F0112F8010F03F8010F9942F9D169
:1017A00047B103ABB91F19442846FFF721FC314666
:1017B000FFF72EFC14B305F10C04B8F1000F4CD068
:1017C0000DF11A012046FFF713FC298AB6F84420D0
:1017D000B5F90C3012FB01F24FF4007192FBF1F2FB
:1017E00012B29B1AB3F5004F23DA13F5004F23DB37
:1017F0001BB2AB8131462046FFF70AFC3346032279
:1018000002A91820FFF78FFC50B99DF809309DF808
:101810000A201B0243EA02439DF8082013432B626F
:1018200008B0BDE8F0810C221046A0E70DF11201CE
:10183000C8E747F6FF73DCE70A4BDAE74FF0FF3003
:10184000EEE7002C14BF1422082288E7002C0BBFFF
:10185000224606222046122089E7002FE6D103A95E
:10186000B0E700BF0080FFFF10B504460846FFF751
:1018700006FC40B93CB10B46012221460320BDE8DD
:101880001040FFF750BC4FF0FF3010BDF7B502AC71
:10189000002304F8013D06460F461546134621462F
:1018A00001225820FFF73FFCB0B9032F19D83301AC
:1018B000022FD8B29DF8073011D0032F0ED0012F80
:1018C0001ABF3043834333438DF8073001222B4640
:1018D00021465820FFF7CAFC03B0F0BD3343034351
:1018E000F2E76FF00B00F7E770B5054608460C46C7
:1018F000FFF7C5FB60B95DB10B6C074849689847B5
:101900002346294601222120BDE87040FFF70BBC89
:101910004FF0FF3070BD00BFE0220200F7B500239A
:1019200004468DF80730FFF7AAFB00287DD1B4F8F4
:101930004A60002E79D0E389DA0744BF03F1FF3310
:10194000E381E389012B9CBF0223E3812146002030
:10195000E789FFF7A8FD034660BB2146FFF7D3FCEC
:10196000034638BBB6FBF7F507FB156515F0FF0519
:1019700023D0751BADB20746BD4220D9D3B920692B
:10198000E289234639463844FFF7A0FCE289174430
:101990000346BFB2F0E72069E2892346294628447E
:1019A000FFF794FCE28915440346ADB2AE420ED96E
:1019B000002BF0D0184603B0F0BD0546F6E7002B2B
:1019C000F8D10222E789E281AE4220D8E781002BDC
:1019D000F0D121460120FFF796FC03460028E9D10B
:1019E00021460120FFF75FFD03460028E2D1214692
:1019F0000DF10700FFF778FF03460028DAD19DF8C4
:101A0000072012F0010F08BF6FF00803D2E7002B88
:101A1000DCD12069E289234629462844FFF756FC99
:101A2000E28915440346ADB2CEE74FF0FF33C1E77C
:101A300037B5B6238DF80630002305468DF80730FC
:101A4000FFF71DFB0446B8B901222B460DF1060134
:101A50007E20FFF70BFC2B6C696804464FF4FA609C
:101A60009847012285F8472034B96B7A3BB1284664
:101A7000FFF754FF044660B1204603B030BD204656
:101A80002B460DF10701FFF74EFB04460028F3D16A
:101A9000EDE700220023C5E90C23EDE713B5002391
:101AA0008DF807300446FFF7EAFA034668B9637A0F
:101AB000012284F847205BB1234601220DF1070182
:101AC0000020FFF730FB034658B1184602B010BDA6
:101AD00023460DF10701FFF726FB03460028F4D14A
:101AE000EAE79DF80720217891420BD1102222735A
:101AF0000122E275054A208562622046FFF798FFC1
:101B00000346E2E722706FF00203DEE70001020005
:101B10002DE9F74314468DF807008946002942D085
:101B2000002A40D0127DC3B29A423FD923460122F7
:101B30000DF107012F20FFF799FB30BBE3890F2B35
:101B40002AD8DA0748BF03F1FF334FF0000648BF39
:101B5000E3813027B0461025E089AAB2824209EB22
:101B60000801234614D302463846FFF7DCFAA57B6A
:101B7000A8442F445FFA88F8FFB22E44F6B2C6F1AB
:101B80001005EDB208B9002DE6D103B0BDE8F08331
:101B90003846FFF7C8FAF0E72346102249463020BE
:101BA000FFF7C1FAF1E74FF0FF30EEE76FF0090001
:101BB000EBE77FB50E46044610220021684611F07F
:101BC0003FFBB57D0023DAB2AA4202D36FF00700D3
:101BD0000FE003EB4302316A88188A5C092A03F19B
:101BE0000103F0D18578407832466946FFF790FFCF
:101BF00008B104B070BD04AB1D4415F8103C03F0EF
:101C000001022270C3F340026270C3F38002C3F387
:101C1000C203A270E370ECE72DE9F043074687B0FA
:101C200010461646FFF72BFA044600286ED1002F07
:101C30006CD03D1D92F8478007EB01170437BD4279
:101C400003D1204607B0BDE8F08315F8043C032B10
:101C500007D9B8F1010F04D131460020FFF723FC6A
:101C6000044674BB15F8043C092B48D0292B0ED12F
:101C70001022214602A811F0E3FAB6F848309B067C
:101C800008D496F816C02346DAB294451BD86FF0F4
:101C90000704D6E7334601220DF107011E20FFF7A6
:101CA00042FA08BB9DF8073013F0400F18BF803B85
:101CB0002B80B8F1010F04D131464046FFF7F3FB0A
:101CC00004461035BBE703EB4302316A88188A5C8F
:101CD000292A03F10103D7D190F8029040783246C7
:101CE00002A9FFF715FF08B10446AAE706AB99441D
:101CF00019F8102C02F07F0312F0400FD6E731469E
:101D00002846FFF756FF0028D3D0EDE74FF0FF3409
:101D100097E71FB5B0F848309B07044611D5FFF789
:101D2000AEF988B904A8292300F8103D2246012104
:101D3000FFF772FF18B9BDF80430A4F8443004B0BE
:101D400010BD6FF00700FAE74FF0FF30F7E7F0B58E
:101D5000577D0023DCB2A74201D800200DE003EB41
:101D60004305D6697419755D8D4203F10103F1D104
:101D700023880380A37883700120F0BD2DE9F04F04
:101D8000044687B010461546FFF779F9002840F061
:101D90005681002C00F053814FF0340818FB0148A5
:101DA00092F847A0DFF89CB2A61C08F10208814611
:101DB00002AFB04505D1BAF1010F00F03A8100241D
:101DC0001AE0BAF1010F10D016F8023C092B00F20C
:101DD000EA80DFE813F015001B002000E800E800AF
:101DE000E800E800E800E800D90029460020FFF7F5
:101DF0005AFB04460028E7D0204607B0BDE8F08F24
:101E000029463046FFF79CFA0446A7E029463046AB
:101E1000FFF7E0FAF8E705F108030B220121701D36
:101E2000FFF76AF904460028E6D12B46012239461D
:101E30006B20FFF778F904460028DDD133789DF850
:101E400008205B0122F0200203F0200313438DF8E9
:101E5000083001222B4639466B20FFF707FA04466B
:101E60000028C9D1ADF808008DF804002B460222E5
:101E700039464B20FFF757F904460028BCD19DF89E
:101E80000830F27903F0010343EA42038DF8083089
:101E90009DF80930727803F07F0343EAC213B278E9
:101EA000920102F0400223F040031343F2789200C3
:101EB00002F00C0223F00C031343327923F00303E6
:101EC00002F0030213438DF809301524294601A8B6
:101ED000FFF7CAFC00284BD19DF804305B0747D4BC
:101EE0002B46394602224B20FFF7C0F92B6C69685C
:101EF00004464FF47A709847002C7FF47DAF7378D6
:101F00008BBBEC752B4606F1080101224D20FFF733
:101F1000ADF92B6C696804464FF47A709847002C31
:101F20007FF46AAF2B46012239464420FFF7FBF8C5
:101F3000044698B97379B27903F00F0343EA0213A8
:101F40008DF8083039462B4601224420FFF78EF9E0
:101F50002B6C696804464FF47A7098473436002C2D
:101F60003FF427AF48E70123EB75F3782B76D9E7E9
:101F70002B6C696842F21070013C984714F0FF0422
:101F8000A4D16FF00E0437E710220021384611F07B
:101F900057F92A46092101A8ADF804908DF806905A
:101FA000FFF7D5FE10B96FF0070425E739469DF815
:101FB0000500FFF7ADFD04460028CFD19DF806309F
:101FC000B6F800C05A0810B2CCF30A0C37F810105B
:101FD00001EA0B0141EA0C0127F81010501CB6F879
:101FE00002C037F81010CCF30A0C01EA0B0141EAE9
:101FF0000C0127F81010901CB6F804C037F8101028
:10200000CCF30A0C01EA0B0141EA0C010332C3EBE9
:10201000420327F8101003F0FF03E2B2934206D800
:102020002B46102239463020FFF720F9ECE6013428
:10203000F3E729465046FFF736FA0446DCE64FF050
:10204000FF34D9E600F8FFFF2DE9F041804686B065
:1020500010461546FFF713F820B14FF0FF3006B0D9
:10206000BDE8F081B8F1000FF7D0342616FB0186E9
:1020700092F8477008F102040236B44203D1012FEE
:1020800073D00020EBE714F8023C032B0CD8022B92
:1020900073D014F8023C092B6CD8DFE803F00E165D
:1020A000706B6B6B6B6B6B1B012FF2D129460020A1
:1020B000FFF7F9F90028D2D1EBE729462046FFF7D0
:1020C00087F8002800F0A680C9E729462046FFF7D8
:1020D000A3F8F6E71022002102A811F0B1F80023BE
:1020E0002A46092101A8ADF804308DF80630FFF723
:1020F0002EFE00283ED002A99DF80500FFF708FD3E
:102100000028ACD19DF8063006A95A1C51FA82F27B
:1021100012F8101C06AA1A4412F8102C42EA0122E6
:10212000C2F30A0206A92280DA1C51FA82F2991C33
:1021300012F8100C06AA52FA81F111F8102C42EA9A
:102140000022C2F30A0206A962805A1D043351FA22
:1021500082F251FA83F312F8102C13F8103C43EA80
:102160000223C3F30A03A38054E029463846FFF74D
:102170009AF974E76FF0070071E7012F96D02846AF
:10218000FEF77DFF00287FF468AF2B46012202A9ED
:102190006B20FEF7C8FF00287FF461AF9DF8083080
:1021A000ADF80800C3F34013237002222B4602A9A6
:1021B0004B20FEF7B8FF00287FF451AF9DF80830A0
:1021C0005B08E3719DF80930C3F38011DA09A1704F
:1021D000C3F3810103F003036270E17023714AB914
:1021E0002B46012204F108014D20FEF79CFF002838
:1021F0007FF435AF2B46012202A94420FEF793FF5E
:1022000000287FF42CAF9DF808301A0903F00F0363
:10221000A2716371343430E748B1836B3BB1C36B57
:102220002BB1006CB0FA80F04009404270474FF08B
:10223000FF30704710B50446FFF7EEFF034610BBB2
:1022400024222270104AA264627A02B90123E37246
:1022500023690BB90D4B23612046FFF71FFC90B992
:102260000B4BE3610B4B236241F20813A38207235C
:10227000A375094BE365082384F860302046BDE868
:102280001040FFF746BD10BD03000020D76B0200D1
:10229000D78B02000A8C02000802002058B1C368E4
:1022A0004BB103693BB143692BB14068B0FA80F090
:1022B0004009404270474FF0FF30704710F5805F93
:1022C00030B502D0D38C19B90BB9194830BD1946B5
:1022D0009B0393FBF1F1A1F5804109B201FB01F3EE
:1022E000802493FBF4F392F8244092F92550E40102
:1022F000614305FB03114FF4007391FBF3F192F975
:102300001A3001F58011A03359434FF4805391FBEB
:10231000F3F14FF40053484390FBF3F092F9183077
:1023200000B200EBC300102390FBF3F000B2CDE746
:102330000080FFFF10F5805F30B502D0D38C19B953
:102340000BB9194830BD19469B0393FBF1F1A1F578
:10235000804109B201FB01F3802493FBF4F392F86E
:10236000244092F92550E401614305FB03114FF429
:10237000007391FBF3F192F91B3001F58011A0334A
:1023800059434FF4805391FBF3F14FF4005348430A
:1023900090FBF3F092F9193000B200EBC300102368
:1023A00090FBF3F000B2CDE70080FFFF10F5804F07
:1023B00070B529D0B2F91E4034B3938B23B319B34F
:1023C000D68C0EB3B2F922508E1B4900451B4B43ED
:1023D000108C03F5004304EB234310FB06F00422AA
:1023E00090FBF2F0C0EBC53090FBF3F0074B984246
:1023F000B8BF184647F6FF739842A8BF1846102387
:1024000090FBF3F000B270BD0148FBE70180FFFFD5
:102410000080FFFFF8B5074618461D46FFF73EFF50
:10242000044640B939B132B12E696B683846B047BD
:1024300028722046F8BD4FF0FF34FAE7F8B506469B
:1024400018461C46FFF72AFF054660B959B1637864
:10245000E768012B18BF46F0800663683046B8472E
:1024600020722846F8BD4FF0FF35FAE773B502AC8D
:10247000002304F8013D06460D460B460122214685
:102480004B20FFF7DBFF78B99DF8073023F00103FD
:1024900033438DF8073001222B4621464B20FFF7AE
:1024A000B9FF08B985F82A6002B070BD38B5044696
:1024B000FFF7F4FE054660B994F82A304BB921467F
:1024C0000120FFF7D3FF63696168054640F6B83025
:1024D0009847284638BD10B586B00446002301460B
:1024E00001208DF80330FFF7C1FF002857D1636941
:1024F000616840F6B8309847234601220DF1030188
:102500004020FFF79BFF002849D19DF80330322B74
:1025100045D12370ADF80400CDE902000490ADF878
:1025200014002346022201A95D20FFF787FFB0BBFC
:102530002346042202A96220FFF780FF78BB2346CE
:102540000A2203A96820FFF779FF40BB9DF80430F9
:1025500023769DF8053063769DF80A30A3769DF8C2
:102560000B30E376BDF80E30A383BDF80C30E38367
:10257000BDF812302384BDF8083063849DF815300F
:1025800084F824309DF8143084F825309DF81130FB
:102590009DF810201B0203F4FE431343E38406B0AE
:1025A00010BD37B50B4604460D4601220DF107015B
:1025B0004C20FFF743FF80B99DF80700640020F02E
:1025C000060004F0060420438DF807002B46012284
:1025D0000DF107014C20FFF71DFF03B030BD10B512
:1025E000024608460C46FFF759FE034640BB5378A7
:1025F000042B23D8DFE803F0030D22151D00084645
:10260000FFF754FF0346D8B92146BDE81040FFF755
:10261000C8BF0846FFF74AFF034688B92146012094
:10262000F3E70846FFF742FF034648B92146032077
:10263000EBE70020BDE81040FFF718BF6FF0020382
:10264000184610BD13B500230446CDE90033082217
:102650000B464B206946FFF7F1FE80BB9DF8073023
:1026600023719DF80630E3709DF8053023749DF8C2
:102670000430E3739DF80330C3F3C2022270DA0919
:10268000A271C3F38012E271C3F380022272C3F31A
:10269000400203F00103A3729DF802306272DA096E
:1026A000E272C3F380122273C3F3C20203F0070382
:1026B000A3739DF801306273C3F3C203A37002B029
:1026C00010BD2DE9F7430023CDE9003307460B4643
:1026D0000E46082269464220FFF7B0FE804690BBB6
:1026E0009DF802509DF903209DF905909DF8064044
:1026F0009DF800309DF90100ED088DF8025045EA83
:1027000042159DF8042052088DF8042042EAC919A8
:102710009DF80720A408DB088DF8064044EA8214DF
:1027200043EA4010324621468DF80030FFF7C6FDDF
:10273000214638802846FFF7FDFD2146788048462F
:10274000FFF734FEB880404603B0BDE8F08313B510
:102750000346044601220DF107014820FFF76EFEF3
:1027600080B9234601220DF106014A20FFF766FEDB
:1027700040B99DF8073003F001029DF8063043EAA6
:102780000223238502B010BD002070470368C9B240
:102790001B68184749000023C161C0F82C327047FC
:1027A000036801211B6B184710B403689C6B01235D
:1027B000A4465DF8044B6047D0F82C32B3F5807F17
:1027C0001FBF5A1CC0F82C22C01880F82C1114BF4F
:1027D000012000207047D0F8280170477047C0F8EA
:1027E00030127047C0F834127047D0F82831A3B1C6
:1027F000D0F828318BB1D0F82431D0F8242103440B
:102800000132D2B293F82030C0F82421D0F8282128
:10281000013AC0F82821184670474FF0FF30704742
:10282000D0F828312BB1D0F82431184490F820008A
:1028300070474FF0FF30704710B5044B03600446FB
:1028400000F50E7008F0CCFF204610BD408C020051
:1028500038B503685B6A04469847A82008F04AFC2C
:1028600094F9192094F91810054604F0D7FD656114
:1028700038BD00007FB503685B6A04460E46984782
:10288000482008F037FC94F9192094F918100546EF
:1028900004F0FEFD71002846256104F015FE094B89
:1028A0000393094B01936946002304F50E700293CC
:1028B000009408F005FF039B13B19B686846984796
:1028C00004B070BD208C0200FB29010038B5D0F89F
:1028D0002C3214461A44B2F5807F88BFC3F5807449
:1028E000054600F596702246184410F0ABFBD5F86B
:1028F0002C322344C5F82C32204638BD38B5044666
:1029000040690D4608B104F0A9FC206920B12946B0
:10291000BDE8384004F0D6BD38BD38B5044640693E
:1029200010B10368DB68984723696BB104F50E7535
:10293000284608F033FF284608F07AFF206948212E
:10294000BDE8384008F0EABB38BD1FB50246D0F8F4
:102950002C32D469406981F0010100913BB9012317
:1029600003AA214604F0ADFCC0B204B010BD02F5CC
:102970009672214604F084FC002814BF0220002037
:10298000F3E770B5C2B083F00103009302AE0446D2
:102990001546134649003246406904F092FCC8B916
:1029A000A84218D0D4F82831B3F5807F10D0D4F8DD
:1029B0002031325C234483F82020D4F820310133C5
:1029C000DBB2C4F82031D4F828310133C4F82831FF
:1029D0000130E5E70025284642B070BD10B4D0E9CB
:1029E000013401686210E40701EB020048BF8A5815
:1029F0005DF8044B48BFD358184730B50446BDB006
:102A00000025206904F067FD0328FAD8DFE800F00C
:102A10004C021414D4F8343203B19847D4F82C2261
:102A200032B104F59671206904F059FDC4F82C52B6
:102A3000206904F05CFDE4E7C4F82051F022C4F8FA
:102A400024516946C4F82851206904F046FD00224B
:102A500082421DDAD4F82831B3F5807F18D0D4F83B
:102A60002831B3F5807F11D0D4F820311DF8021041
:102A7000234483F82010D4F820310133DBB2C4F8AA
:102A80002031D4F828310133C4F828310132DFE78E
:102A9000D4F82831002BB4DDD4F83032002BB0D07C
:102AA000D4F828019847ACE701F0C6FFA9E7000079
:102AB00073B54FF47A730025C0E901531A4B0360D4
:102AC0000446C0E904550176427629464FF48072E7
:102AD000203010F0B5FB154BC4F82051C4F8383243
:102AE0002946C4F82451C4F82C52C4F82851C4F81B
:102AF0003052C4F83452C4F8485204F51E7008F03D
:102B000039FD04F5237008F0D5FC04F50E76084B6A
:102B1000009330462B464FF40062182108F0C4FDA4
:102B2000204602B070BD00BF408C02008CA50200A0
:102B30002C8C0200F8B5122001F040FF054613204E
:102B400001F03CFF104C114E2946114D0246204623
:102B5000FFF7AEFF32462946204608F0C4F81E2093
:102B600001F02CFF07461F2001F028FF094C024608
:102B700039462046FFF79CFF324629462046BDE8ED
:102B8000F84008F0B0B800BF6C120020000200202E
:102B9000392801006015002030B5A1F1100400258E
:102BA00000F00F02D3B2092ACCBF373330338B7316
:102BB000CD7302398C424FEA1010F1D130BD222082
:102BC0007047000030B5012185B0192001F080FF69
:102BD0000121192001F0BAFF4FF080430022C3F811
:102BE0005C2503F588334FF48032C3F84823012174
:102BF000C3F80823212001F06BFF0121202001F000
:102C000067FF0121212001F0A1FF0121202001F017
:102C10009DFF104B01221A600F4A1368002BFCD055
:102C20000E4B0024C3F80045C3F800450C4B0FCBF6
:102C30006D4685E80F00234620464FF0FF3155F8DA
:102C400023200133042BC2F80005C2F86015F6D129
:102C500005B030BD04200040442100400020004069
:102C6000908C020038B54FF0805504462146D5F8C7
:102C7000A800FFF791FFD5F8A40004F11001FFF7B9
:102C80008BFF202038BD000072B64FF08043B02289
:102C9000C3F81C25BFF34F8F0549064BCA6802F4E1
:102CA000E0621343CB60BFF34F8F00BFFDE700BF6F
:102CB00000ED00E00400FA05F0B58BB041B3931EBF
:102CC000222B2FD80A2A06D1002804DA44420126F2
:102CD00001AB1D4610E004460026F9E7B4FBF2F014
:102CE00002FB1047092F044603F10103F8B294BF19
:102CF0003030573003F8010C002CEFD1AB42EDD04F
:102D00004EB12D204A1C0870AB4206D80023137028
:102D100008460BB0F0BD0A46F6E713F8010D02F8BD
:102D2000010BF1E70021F3E7FFF7C6BF70B590F89C
:102D3000343105461446F3B90368DB69984704F457
:102D40007063B3F5407F04F0F0030CBF0721082146
:102D500004F00F02302B0CBF02230123012A08D0FC
:102D6000901E42424241A869BDE87040006804F0EC
:102D700011BD0222F7E770BD10B590F8343104465A
:102D80002BB9A369186804F05BFD0028F9D010BDC9
:102D900038B590F834510446A5B983695BB1186819
:102DA00048B10368DB689847A3691D600421A069E6
:102DB00008F0B4F9A5610023C4F82431C4F828311F
:102DC000C4F82C3138BD13B590F8343104466BBBD0
:102DD000A369186804F0F6FC40B307F05BFCA36934
:102DE0001868036801225B690DF107019847D4F860
:102DF0002C31B3F5807F16D0D4F82C31B3F5807F19
:102E000011D0D4F824319DF80720234483F82420DE
:102E1000D4F824310133DBB2C4F82431D4F82C3196
:102E20000133C4F82C3107F04BFCD1E702B010BDE0
:102E30007FB590F8343104460D46002B34D18669B5
:102E400026B9042008F056F9A0610660A369186845
:102E500060BB4FF4867008F04DF92B4694F92120A1
:102E600094F92010064604F09DFFA3691E6094F9B2
:102E70002220531C06D0A06994F923300068032156
:102E800004F09EFFA369186870B10A4B03930022F7
:102E9000094B019369460094029204F0EEFC039BF7
:102EA00013B19B686846984704B070BD294604F08A
:102EB0005DFCDCE7A08C0200C72D010010B4D0E956
:102EC000013401686210E40701EB020048BF8A5830
:102ED0005DF8044B48BFD3581847000008B590F878
:102EE00034313BB1012001F095FD0648BDE80840B2
:102EF00001F028BA82691AB11368003318BF0123A0
:102F0000184608BD5820002070B504460D4601F053
:102F100019FA30B12368294620461B6CBDE8704081
:102F2000184770BDA0F5A070EEE7000013B590F84B
:102F300034318DF8071004462BB1C9B20B48FFF7A6
:102F4000E3FF02B010BDA369186804F079FC002803
:102F5000F9D0A3691868036801221B690DF1070104
:102F60009847013018BF0120EBE700BF5820002030
:102F70002DE9F04107468846164601F0E3F970B1A5
:102F80000024A6420CD9351B402D28BF402508EB54
:102F900004012A46384600F0BBFE2C44F1E7044603
:102FA0002046BDE8F081A0F5A070E1E770B590F88B
:102FB000343105460E4614462BB11048FFF7D8FFB2
:102FC0000446204670BDAB69186804F039FC00283F
:102FD000F9D0AB691868D0F8083101211B6B00F5F6
:102FE00084709847AB691868036822461B693146AC
:102FF0009847013008BF0024E3E700BF58200020B5
:1030000030B50446C3B001F017F9D4F85832C3F50F
:10301000807398420546C4BFD4F85852C5F58075F0
:103020002A4601AB02A9204600F05CFF019902ABE1
:103030006D1A00221D44D4F85832B3F5807F19D0A0
:103040008A4217D0D4F85832B3F5807F10D0D4F824
:103050005032A85C234483F85001D4F85032013335
:10306000DBB2C4F85032D4F858320133C4F85832C5
:103070000132E0E743B030BD38B5044600F0F0FA65
:103080002046FFF7BDFFD4F85852204600F0F0FA72
:10309000284638BDA0F5A070EEE7000010B590F806
:1030A000343104462BB10648FFF7E6FF04462046BC
:1030B00010BD07F0EFFAD4F82C4107F001FBF6E75A
:1030C0005820002038B5044600F0CAFA2046FFF721
:1030D00097FFD4F858324BB1D4F85432234493F8C4
:1030E0005051204600F0C4FA284638BD4FF0FF3555
:1030F000F7E7A0F5A070E5E710B590F83431044685
:103100002BB10B48FFF7DEFF0446204610BD07F049
:10311000C1FAD4F82C313BB1D4F82801044494F816
:10312000244007F0CDFAF0E74FF0FF34F9E700BF95
:103130005820002038B5044600F092FA2046FFF7E8
:103140005FFFD4F85832A3B1D4F85432234493F833
:103150005051D4F854320133DBB2C4F85432D4F8AD
:103160005832013BC4F85832204600F081FA284614
:1031700038BD4FF0FF35F7E7A0F5A070DAE70000A3
:1031800010B590F8343104462BB11148FFF7D2FF47
:103190000446204610BD07F07DFAD4F82C319BB1CF
:1031A000D4F82831234493F82400D4F8283101338B
:1031B000DBB2C4F82831D4F82C31013BC4F82C31EF
:1031C000044607F07DFAE4E74FF0FF34F9E700BF6B
:1031D0005820002008B54FF48072002110F030F81C
:1031E0000022C0F80021C0F80421C0F8082108BD61
:1031F0002DE9F047194C1A4F276000254FF47A78D3
:10320000C4E90158202604F12400C4E90565E561FC
:103210004FF00109FFF7DEFF284684F8349101F0F2
:10322000CDFB8246484601F0C9FB0E4CFF2384F8D3
:103230002100C4E9015804F124002760C4E90565B0
:10324000E56184F820A084F8223084F82330FFF769
:10325000C1FF84F83451BDE8F08700BF8C1900200D
:10326000B48C02005418002000207047704770474B
:1032700010B5D0F88C452CB1236820465B68984780
:10328000A468F8E710BD38B5D0F88C450D4634B1C8
:10329000236820469B6829469847A468F7E738BD0D
:1032A00000487047748D020010B5054B036004465A
:1032B00006F09BF8204606F0B1F8204610BD00BF8E
:1032C000F48C020010B50446FFF7EEFF20464FF4E1
:1032D000B26107F023FF204610BDF7B5D0F88C454A
:1032E00005460E460023A4B123683146DF680DF180
:1032F000030201AB2046B8479DF80310042903469A
:1033000005D0019A284605F0D5FA03B0F0BDA468AF
:10331000E9E7019A9DF80310F4E770B505460E46FB
:1033200022B10021BDE8704005F0C6B8D0F88C4548
:103330005CB1236800221B6931462046984710B1D2
:1033400001212846EEE7A468F2E72146F9E770B5C7
:10335000D0F88C450E46054600213CB12368314625
:1033600020465B699847A4680146F6E72846BDE811
:10337000704005F09BB9F8B5D0F88C4505460E466F
:1033800017463CB1236820469B693A463146984728
:10339000A468F6E728460121BDE8F84005F0E4B945
:1033A00070B5002186B0044605F07CFC0023ADF822
:1033B000063023898DF810301B0AA188E2888DF829
:1033C00011304FF4897540F20123ADF80450ADF887
:1033D0001230022540F20313EF268DF807508DF8C6
:1033E00009508DF80C100125090A8DF80E20ADF852
:1033F0001430120A04F10A038DF808608DF80A509F
:103400008DF80B008DF80D108DF80F2001AD05AE75
:103410001C462A4603CAB24218605960154603F199
:103420000803F6D112881A80204606B070BDF8B5A0
:10343000002406460D462746304610F0E1FAA04229
:1034400007D9335D05F8143005EB440301345F7090
:10345000F2E7400000F0FE00F8BD38B5D0F88C551A
:10346000044635B12B6828461B6A984710B9AD68E9
:10347000F7E7284640F20233A4F8483504F24A51EF
:10348000FFF7D5FF94F84835184484F8480504F54B
:10349000A96038BD40F2023310B500F20A5104466B
:1034A000A0F808350548FFF7C2FF94F8083518441E
:1034B00084F8080504F5A16010BD00BFE08C02008F
:1034C00040F2023310B50446A0F8C83400F2CA40F6
:1034D000FFF7C8FB94F8C834184484F8C80404F50E
:1034E000996010BD2DE9FF4100238DF80A3090F856
:1034F00088351B4A8DF80830012301928DF8093078
:103500003222C0238DF80B308DF80C2001AB04461D
:1035100000F54E7803CBC4F83803C8F8041088F8D7
:103520000820D4F88C6509258EB1336800211B680A
:1035300030469847478805F54E73093F00F1090169
:103540003A46E0180FF07EFD3D44B668ECE784F89B
:103550003A5340462D1284F83B5304B0BDE8F08145
:103560000902FFFF73B504460D46164608F04CFBF2
:103570004FF480730093014633462A46204605F0F7
:1035800059FB024B2360204602B070BDF48C020050
:1035900010B5D0F88C350446A3B9C0F88C1594F852
:1035A00088350B7194F888354A79134484F8883546
:1035B0000B6808465B6A98472389184420810120DC
:1035C00010BD13469A68002AFBD19960E7E71FB542
:1035D000044605F029FB0146684604F0B3FC40218F
:1035E000684604F02BFDD4F88C4534B1236820469E
:1035F000DB6969469847A468F7E7684604F0A9FCC8
:1036000004B010BD10B50446FFF7E1FF2046BDE849
:10361000104005F079BA000010B50D4C2378BFF3C7
:103620005B8FDB0712D4204607F070FB70B148F2C5
:103630005A0242F241310748FFF794FF204607F053
:1036400087FB054A0549034807F04DFB014810BDBB
:10365000C41A0020C81A002000020020A93201006C
:1036600010B5FFF7D9FF0368BDE810405B6F18473E
:1036700010B5FFF7D1FF0368BDE810409B6F1847F6
:1036800010B5FFF7C9FF0368BDE81040DB6F1847AE
:1036900004F014BE04F0D2BD04F000BE70477047C1
:1036A0007047436A93F878007047D0F82401704758
:1036B0000120704700487047DC8E02002DE9F04F72
:1036C000044697B00F464B22002103A80FF0B8FD27
:1036D000D4F82431267994F80EA094F80C90002B9D
:1036E00006F10105637B019314BF05200020EDB2B4
:1036F000002F40F0978040F20923ADF80C304FF4D2
:103700008173ADF8103080238DF8133032238DF89B
:10371000143008238DF815300B2301218DF8163055
:103720008DF8250040F2022342F205404FF0240CB0
:103730004FF0090E04274B22ADF818308DF82110F8
:1037400002238DF82410ADF826004FF01008052054
:103750008DF82A108DF82D108DF82F104FF0030BD7
:1037600006218DF80E208DF817608DF81A308DF82F
:103770001DE08DF81F608DF822308DF823308DF814
:103780002B008DF82CC08DF831C08DF832308DF8BB
:1037900033108DF834008DF835C08DF81E708DF81B
:1037A00029808DF82EB08DF830708DF836100721F5
:1037B0008DF839108DF8491044F20201ADF84C1023
:1037C00040F20751ADF850101D349DF804108DF8EB
:1037D00037608DF838508DF83A008DF842508DF8EA
:1037E0004A008DF852108DF8533044F203064023FE
:1037F00040F6022503A920468DF83BA0ADF83C60B9
:103800008DF83F808DF840E08DF84170ADF8445060
:103810008DF84B908DF854300FF014FC204617B003
:10382000BDE8F08F0020FAE738B505460A4B45F8A9
:10383000D03B0446FFF7F0FE05F0D7FD284604F024
:1038400097FC04F17C0004F093FC04F1700004F098
:103850008FFC204638BD00BF9C8E020010B5044688
:10386000FFF7E2FF20464FF4947107F057FC204623
:1038700010BDFFF705BF000010B5034B0360044601
:1038800004F0E6FA204610BDBC8D020010B50446D7
:10389000FFF7F2FF2046282107F040FC204610BD2C
:1038A00010B5034B0360044604F0D2FA204610BD65
:1038B0008C8D020010B50446FFF7F2FF204634213C
:1038C00007F02CFC204610BD10B5034B03600446E6
:1038D00004F0BEFA204610BDA48D020010B50446C7
:1038E000FFF7F2FF2046382107F018FC204610BDF4
:1038F00038B51C4B0D461968C0F80F1099889B7994
:1039000043750446A0F8131040220221284604F013
:103910008BFB402220730221284604F08AFB4022C0
:1039200060730321284604F07FFBA073284604F04F
:1039300011FB20B9AF220C490C4806F003FE00230E
:1039400004F18502C4E9322304F1D90284F8783005
:1039500084F8843084F8D830C4F81C21C4F82031AD
:1039600038BD00BFD88D0200778E0200828E020023
:103970002DE9F34104460E461546FFF781FEF28815
:1039800023799A4237D1002D35D17778012F2ED166
:10399000F378202B27D13289072A24D104F10F088C
:1039A00004F11605294640460FF01AFBD0B1D4F8B1
:1039B0001630C4F80F30207CE17B638BA4F8133001
:1039C00001EB0021607CE57C237F009501EB004149
:1039D0002568A07C637501EB0061237D627D6D6BC2
:1039E0002046A8473D46F378212B08BF01252846ED
:1039F00002B0BDE8F0810025F9E710B50446FFF7F5
:103A00003FFEFFF709FE217B05F094FB04F18503DF
:103A1000C4F8C8300023C4F8CC3084F8843004F1F2
:103A20007C0004F05AFB94F884302BB923682046BC
:103A3000DB6BBDE81040184710BD000070B50446B0
:103A4000FFF71EFED4F820512DB140F2DD120F49D0
:103A50000F4806F077FD04F1D903C4F81C31FFF7D5
:103A6000DBFD617B05F0C2FA84F8D850C4F8200170
:103A700004F1D00004F031FB94F8D8302BB923685E
:103A800020469B6BBDE87040184770BD778E0200E2
:103A9000E48D020010B4D0E9013401686210E4073B
:103AA00001EB020048BF8A585DF8044B48BFD35869
:103AB00018470000F0B5044687B002ADFFF7E0FDFF
:103AC0000026FFF7A9FDA17B009503234022059660
:103AD00005F034F82846FCF705FFFFF79DFD164B6F
:103AE000217B164F00954022CDE90336022305972E
:103AF000029405F023F82846FCF7F4FEFFF78CFD4E
:103B00000F4B617B00954022CDE9033602230597D8
:103B1000029405F013F82846FCF7E4FEFFF77CFD5D
:103B20004023D4F81C21617B05F000FA012084F8C1
:103B3000D80007B0F0BD00BFFB390100CC8D0200FA
:103B40003D3A010038B502234371002383600C4BDA
:103B5000044640F8703B154604F0B2FA04F17C00CC
:103B600004F0AEFA04F1D00004F0AAFAC4F824512B
:103B7000FFF752FD2146FFF70BFD204638BD00BF81
:103B80009C8E020070B504460D46FFF779FD84F85F
:103B90007850002D3ED194F8843033B1FFF73CFDCE
:103BA000217B05F09BF884F8845004F1850304F12F
:103BB0007C0600253046C4F8C830C4F8CC5004F068
:103BC0008CFA304604F082FA28B9154915484FF4AA
:103BD000A27206F0B7FC94F8D83033B1FFF71CFDA1
:103BE000217B05F07BF884F8D85004F1D903C4F8A0
:103BF0001C3104F1D00500232846C4F8203104F01C
:103C00006CFA284604F062FA20B94FF4A77204490E
:103C10000548DEE704F17000BDE8704004F05DBACD
:103C2000778E0200F28D0200038E020010B504466A
:103C3000FFF726FD20460021BDE81040FFF7A2BF98
:103C400038B50D460446FFF71BFD042D05D0204670
:103C50000021BDE83840FFF795BF38BDF8B51646DE
:103C600004460D461F46FFF70BFD04233370EA8818
:103C700023799A4225D16978012922D1EA78212A2B
:103C800008D0222A0BD0202A4FF000001BD1307020
:103C9000163401E031700F343C600720F8BDAB886A
:103CA00013F0010308BF19462046FFF76BFFAB88EE
:103CB00003F00103E366AB8803F00203A36602236B
:103CC00033700020EAE703233370E7E710B58AB0CA
:103CD0000446FFF7C5FC684604F0AEF80A4B0093B3
:103CE000694604F17000099404F00FFA2046FFF7CA
:103CF000BFFC064B00211A68684604F0E9F86846E4
:103D0000FFF7BAFD0AB010BDBC8D0200E08D0200C5
:103D100070B58EB0154604460E46FFF7A1FC01A80B
:103D200004F08AF80E4B0C9501A9002504F17C00E3
:103D30000193CDE90A468DF8345004F0E6F92046A7
:103D4000FFF796FC074B29461A6801A804F0C0F853
:103D500001A89DF83440FFF7A3FD20460EB070BDCA
:103D60008C8D0200E08D020010B50446FFF788FC40
:103D700094F884307BB9D4F8CC3063B1FFF74CFCB5
:103D8000D4F8CC30217B04F1850205F06FF910B135
:103D9000012384F8843010BD2DE9F8431E46044603
:103DA000894690469DF82070FFF75AFC0023336047
:103DB00094F87830E3B194F88430CBB9D4F8CC508F
:103DC000C5F14005454528BF4546B8F1000F05D06F
:103DD0002A464946D4F8C8000FF034F9D4F8CC305C
:103DE0002B44C4F8CC30356017B12046FFF7BCFF38
:103DF0002046BDE8F843FFF73BBCF0B50446406AF7
:103E000090F8785085B001262DB984F830503546A9
:103E1000284605B0F0BD04AB002743F8047DD4E983
:103E20000A120096FFF7B8FF0399E36AA26A5B1AC9
:103E30000A44E362A26213B984F83060E8E7606A7A
:103E4000FFF792FF3D46E3E72DE9F0431C4691B0B2
:103E5000904606468946FFF703FC002C08BF01ACDC
:103E60004FF00005256002A80CBF0127002703F0D2
:103E7000E3FF104B029302A906F1D000CDE90D84B7
:103E8000CDE90B698DF83C708DF83D5004F03DF99B
:103E90003046FFF7EDFB084B29461A6802A804F0EC
:103EA00017F802A89DF83D40FFF70EFD204611B01F
:103EB000BDE8F083A48D0200E08D020010B5D0F8BB
:103EC000203104466BB990F8D83053B9FFF7A4FB02
:103ED000402304F1D902617B05F028F8012384F81E
:103EE000D83010BD70B51E4604460023336094F8E8
:103EF00078300846EBB194F8D830D3B9D4F82051D3
:103F0000D4F81C11954228BF15462A460FF09AF89E
:103F10003560D4F81C31D4F820212B44551BC4F84B
:103F20001C31C4F8205125B92046BDE87040FFF788
:103F3000C5BF70BD37B50446406A90F878502DB9BA
:103F400084F835500125284603B030BD02AB00226D
:103F500043F8042DD4E90A12FFF7C4FF0199A26ABD
:103F60000A44A262226B13680B441360E36A01994E
:103F70005B1A94F83410E36209B9126802B91BB9EC
:103F8000012384F83530DEE7606AFFF797FF0025EC
:103F9000D9E76FF01500704700290CBF6FF01800CB
:103FA00000207047012070476FF0150070476FF0D8
:103FB00015007047112070477047704770470368BD
:103FC0009B6C1847A0F5A070F9E7704770477047E1
:103FD00070470368184710B50446012000F01AFD29
:103FE00094F8780010BDA0F5A070F4E738B54FF054
:103FF000FF320123FF210B480B4D07F01BFA00F0A5
:10400000F7FC044695F878301BB1012000F002FD62
:10401000F8E700F0EDFC001BC728F6D9BDE83840F2
:10402000FEF732BE102300205820002007B502AB57
:10403000012243F8041D1946FFF76AFE18B10198E2
:1040400003B05DF804FB4FF0FF30F9E7A0F5947082
:10405000FFF7ECBF07B502A9002301F8013D0122DB
:10406000FFF7F2FE20B19DF8070003B05DF804FBF6
:104070004FF0FF30F9E7A0F59470FFF7EBBF2DE9A3
:10408000F8430446884617461E46089DFFF7F8FA8F
:10409000D4F87092B9F1000F04D02B46324639465D
:1040A0004046C847C4F86082C4F86472C4F86862C5
:1040B000C4F86C52BDE8F88370B50646FFF7E0FA25
:1040C00006F51D740025D6F8B432AB4208D9204657
:1040D000103454F8043C1BB11B6898470135F2E7D3
:1040E00070BD0000B0F5966F03D10121014807F0C3
:1040F00083B970471023002010B4D0E9013401685F
:104100006210E40701EB020048BF8A585DF8044BD7
:1041100048BFD35818470000114B03F1780270B51F
:104120000360C0F8282103F1D802E8330446C0F840
:104130002C21C0F8403100F51D7600F52D75AE42FA
:1041400004D0103D2846FCF7CDFBF8E704F5947049
:1041500005F0C4FE2046FFF767FB204670BD00BF98
:104160001C8F0200A0F59470FFF7D6BFA0F59670E3
:10417000FFF7D2BF10B50446FFF7CEFF20464FF43D
:104180002E7106F0CBFF204610BDA0F59670FFF70C
:10419000F1BFA0F59470FFF7EDBF0000F7B504463E
:1041A00015461F460E4607F02FFDBDF8243001933B
:1041B000BDF8203000932A463B4601462046FFF7D3
:1041C000C1FC002104F5947005F05EFE4FF47A7393
:1041D000C4F84831174B236003F178020025C4F876
:1041E000282103F1D802E833C4F82C21C4F8445143
:1041F000C4F840314FF48072294604F5A8700FF0DE
:104200001FF8C4F85052C4F88052C4F85452C4F88D
:104210009052C4F85852C4F8A052C4F8B052C4F82E
:10422000B452C4F8705216B12046FFF74FFD204635
:1042300003B0F0BD1C8F020038B50546FFF710FA39
:1042400095F8D8304BB9D5F82041402C28BF4024F0
:104250002846FFF70DFA204638BD0024F8E7000095
:1042600070B5044686B0FFF7FBF92D4BC4F87032E9
:104270002046FFF7FDF92B4B05932B4B039320466C
:10428000002302940493FFF7EBF9D4F8B452032D02
:1042900013D804EB05166B1C06F51D76C4F8B43272
:1042A0003046FCF71FFB04EB0515059BC5F8803273
:1042B0001BB15B6802A9304698472046FFF7D8F942
:1042C00002A8FCF70FFBBC2006F014FF0026174BDA
:1042D0000360054631460661403007F04BF905F1B1
:1042E000540007F0E7F8124B00934FF48072334606
:1042F0002846182107F0D8F90E4B05930E4BC4F849
:104300005C5202A92846CDE90236049607F0D8F996
:1043100002A8FCF7E7FA2046FEF772FE06B070BD71
:10432000E5400100F48E0200013001008CA502007E
:104330000C8F0200008F0200ED3F0100A0F5A0707D
:10434000FFF78EBF90F878007047000037B50F4C2C
:104350000F4D204607F040F82A460E49204606F049
:10436000C2FC0D4C42F212030122CDE900320022C0
:1043700011464FF4F8532046FFF710FF07492A462D
:10438000204603B0BDE8304006F0ADBC102300204D
:1043900000020020FFB30100582000201941010055
:1043A00008B50DF089FC2DE9F04F027D012A85B09A
:1043B00005460E4640F0908000214FF0FF3B04463A
:1043C0000B465F4694F804C048B2BCF1000F75D1AB
:1043D00094F805C0BCF1000F70D1B7F1FF3F1BBFCF
:1043E00001335BB201233846934201DD1A4683460E
:1043F0000131082904F102045ED1002402EB0B0311
:10440000A1460293CB4502DC029B4B4559DC95F853
:10441000058095F804A04FEA28170AF00F03FAB2B6
:104420005FEA2A1A019208F00F0870D05FFA8AF149
:10443000BAF1090FD4BF303157313046039300F041
:10444000CFF8039B0444092B94BF03F1300103F11F
:1044500057013046039300F0C3F80444BAF1000F4B
:1044600002D1039B03B94FB1092F019FD4BF30374D
:104470005737F9B2304600F0B3F80444B8F1090FE9
:1044800094BF08F1300108F15701304600F0A8F858
:10449000B9F1070F044404D03A21304600F0A0F8E7
:1044A000044409F10109B9F1080F05F10205A9D188
:1044B000204605B0BDE8F08F074683E74FF0FF3098
:1044C00096E7CB45EDD1BBF1000FE5D13A2130465F
:1044D00000F086F80444DFE700F1100700F113094B
:1044E000002417F8011B0A22304600F0B7F82E21ED
:1044F0008046304600F074F8B94540440444F0D199
:104500000A22E97C304600F0A9F80444D0E7002BE9
:1045100099D1A8E710B5054B036004460175102238
:10452000002104300EF08CFE204610BD38900200B1
:1045300070B5074D0560837400259DF81030057532
:1045400045608560C56001744274C37470BD00BF6E
:104550003890020007B501210648FFF7DBFF002372
:1045600000931A4619460448FFF7E2FF03B05DF8CE
:1045700004FB00BF242300203C2300202DE9F04150
:1045800006460D4601EB02080C464445A4EB050720
:1045900007D0336814F8011B1B6830469847002881
:1045A000F3D13846BDE8F08170B5044608460D46A3
:1045B0000FF026FA23680246294620465B68BDE8CC
:1045C0007040184709B1FFF7EFBF0846704703680E
:1045D0008A685B680968184708B5FFF7F3FF08BDEC
:1045E00003681B68184700000149FFF7DDBF00BFE3
:1045F000BFA2020038B50546FFF7E9FF044628468A
:10460000FFF7F2FF204438BD70B58AB00D460AA905
:10461000002301F8043D012A98BF0A22B5FBF2F4F9
:1046200002FB1456F3B2092E94BF30333733DBB29A
:10463000254601F8013D002CF0D1FFF7C3FF0AB079
:1046400070BD10B42AB903685DF8044B1B68C9B289
:104650001847D2B25DF8044BFFF7D6BFFFF7F1BFA2
:104660002DE9F84F0A9E0746002E10461946B8BF9E
:10467000022614461D460CF0CDFE28B14C493846A2
:10468000BDE8F84FFFF790BF25F000494FF0FF322B
:10469000484B204649460CF0BDFE48B94FF0FF326A
:1046A000444B204649460CF097FE08B94249E6E7DC
:1046B0004FF06042414B204629460CF0A1FE08B164
:1046C0003F49DCE74FF060423E4B204629460CF064
:1046D00079FE0028F4D100220023204629460CF060
:1046E00071FED0B12D213846FFF77AFF05F1004366
:1046F00082461D463449DFF8D8904FF0000B002069
:104700004FF000085FFA8BF3B3420BF1010B06DAAE
:1047100042464B460CF00EFDF4E78246EAE70246BD
:104720000B46204629460CF025FA0D4604460CF0AF
:1047300087FE0A22014680463846FFF765FF82441D
:104740009EB340460CF052FB02460B4620462946DB
:104750000CF00EFA04460D4638461C49DFF87090FE
:10476000FFF722FF4FF00008824416F1FF361CD3FA
:104770004B464246204629460CF0B2FB0D46044605
:104780000CF05EFE0A22014683463846FFF73CFFE6
:10479000824458460CF02AFB02460B462046294626
:1047A0000CF0E6F904460D46DFE75046BDE8F88F09
:1047B0003C900200FFFFEF7F40900200FFFFEF41BF
:1047C00044900200FFFFEFC10000E03F7C9902002F
:1047D00000002440FFF744BF37B506990091054615
:1047E000FFF73EFF04462846FFF7FEFE204403B0D5
:1047F00030BD10B50446006808B10EF0DFF8204661
:1048000010BD10B50446006808B10EF0D7F80023BB
:104810002360C4E9013310BD38B504460D46006875
:1048200001310EF06DFD10B1C4E90005012038BD65
:10483000036810B5044623B143688B4201D30120BD
:1048400010BD2046FFF7E8FF0028F9D0A368002B31
:10485000F5D122681370F3E770B50E461146044691
:104860001546FFF7E5FF20B92046FFF7CAFF2046AF
:1048700070BD2A463146A56020680EF0E3FB226831
:10488000A3680021D154F2E738B500230446C0E9FB
:10489000003383600D4639B108460FF0B1F8294660
:1048A00002462046FFF7D8FF204638BD38B50546FA
:1048B00008460C460FF0A4F8214602462846BDE8FB
:1048C0003840FFF7C9BF10B504468AB00023C4E9D9
:1048D0000033A360084601A9FEF726FA204601A985
:1048E000FFF7E4FF20460AB010BD2DE9F041054670
:1048F0001746884619B900263046BDE8F0819AB1BE
:10490000846814442146FFF793FF06460028F2D03E
:10491000AB6828683A46184441460EF093FB2B6872
:10492000AC6000221A55E7E70126E5E738B50546F1
:1049300008460C460FF064F8214602462846BDE8BA
:104940003840FFF7D2BF09B1FFF7F0BF0846704704
:1049500010B58A6809680446FFF7C7FF10B92046FA
:10496000FFF74FFF204610BD10B5044621B9204681
:10497000FFF747FF204610BDFFF7E5FF0028F6D000
:10498000F8E7000010B500F049F8FEF71BF9FEF754
:1049900043FEFEF737FE4FF4E1310648064CFFF7C1
:1049A0005FFCFBF7FBFCFBF7D3FD002CFBD0AFF368
:1049B0000080F8E7582000200000000010B50446F1
:1049C000FEF7FDF884423BBF2401024B4FF0FF305D
:1049D000185710BD1802002010B5044603F08EF8D9
:1049E000204610BD10B5044603F088F8204610BDDF
:1049F00007B50749684603F0BEF84FF47A72002302
:104A0000DDE900010CF08CFD03B05DF804FB00BF94
:104A10005823002006F0DEBD06F0B4BC08B50448FB
:104A200003F076F80348BDE8084003F071B800BF12
:104A3000702300205823002006F0DCBD38B50A4C56
:104A40000A4D204603F0D4F82046094C09492A466D
:104A500006F049F9204603F0D6F82A4620460649D2
:104A6000BDE8384006F03FB9702300200002002066
:104A700058230020E5490100D949010008B590F903
:104A800000305A1C04D121220E490F4805F05AFD6E
:104A9000012259B11F2B86BF03F01F030B494FF0B2
:104AA000A04102FA03F3C1F8083508BD1F2B86BFE9
:104AB00003F01F0305494FF0A04102FA03F3C1F8C8
:104AC0000C35F2E7CF900200DD90020000030050A9
:104AD0002DE9F8431C4D4FEA001805EB0802044687
:104AE000D0680F4610B1012106F018FB2046FFF7F1
:104AF00065FF8146012006F0FDFA00260670494652
:104B0000044604F006FE05EB0803012FDC6010D01C
:104B100006D3022F12D0204602F02EFB012103E023
:104B2000204602F029FB31462046BDE8F84302F05A
:104B30002FBB2046BDE8F84302F012BB204602F02E
:104B40001BFB0321F0E700BF18020020F7B5064663
:104B50000F46FEF734F886421BD20F4D05EB0615C3
:104B6000EC687CB93046FFF729FF0646012006F0C5
:104B7000C1FA00230446037001220097314604F075
:104B8000D1FDEC603946204603B0BDE8F040FFF7A8
:104B900075BF03B0F0BD00BF180200201EF0040F67
:104BA0000CBFEFF30880EFF30980816911F8021C54
:104BB000002932D101B590E80F10E047BDE8005060
:104BC0008CE80300244B93E80600914208BF70472D
:104BD0001A6041B91EF0100F10D1204B186820F058
:104BE000010018600AE02CE9F00F1EF0100F08BF5A
:104BF0002CED108A81F822E0C1F838C0906B92F851
:104C0000221061F0FF0E1EF0100F08BFB0EC108AEA
:104C1000B0E8F00F80F309887047114A1368994291
:104C2000FAD801B552F821C00FC8E047BDE80050DE
:104C3000CCF80000704701B501F046FBBDE801402B
:104C4000EFF3098CBEE701B501F002FBBDE80140BE
:104C5000EFF3098CB6E700004C04002034EF00E0CD
:104C6000A891020008B5014630B96FF0030000F0CA
:104C7000EEF96FF0030008BD132001F0D3FE30B948
:104C80004FF0FF3000F0E3F94FF0FF30F3E7002082
:104C9000F1E7000008B5EFF305834BB9EFF310839C
:104CA00033B9EFF311831BB9DFF814C000DF08BD7F
:104CB0006FF0050000F0CBF96FF00500F7E700BFDB
:104CC000654C0100EFF310832BB9EFF3118000382E
:104CD00018BF0120704701207047000010B503463F
:104CE00028B30468806860B110F0030202D1DB6869
:104CF0000F2B25D86FF00801002002F0EFF80020FC
:104D000014E0DB68002BF5D1104BD3F8900080B194
:104D100000F013FCB0B1012383700023C0E902331B
:104D2000F3220A4B02700A4A44605A6610BD0446D8
:104D3000EAE7D3F880000122102100F08AFBE9E7BE
:104D40001346E9E76FF00401D7E700BF38040020FD
:104D5000254E010010B5044610B10378F32B07D09F
:104D600020466FF0030102F0B9F86FF0030010BDA8
:104D7000836863B1204601F003FC00226FF002015A
:104D800001F0A8FDA0680028F4D101F081FC002307
:104D90002370A378DB0701D40020E8E7064BD3F8A3
:104DA0009000214610B100F0E5FBF5E7D3F8800054
:104DB00000F082FBF0E700BF38040020930710B535
:104DC00002F0010422D400F10C0384B153E8000F77
:104DD00000EA01028A4203D0BFF32F8F002005E0D2
:104DE00020EA010243E8002404B1EFE710BD53E8D4
:104DF000000F084203D1BFF32F8F002005E020EA07
:104E0000010243E8002404B1F1E7EFE7C06801EADA
:104E100000031CB1994218BF0020E7E7002B08BF30
:104E20000020E3E7F8B58468054604B9F8BD94F8B6
:104E30002320616AA7682846FFF7C0FF064638B1FD
:104E4000204601F0A6FB00223146204601F042FD3B
:104E50003C46EAE7F8B50D4617461E46044620B123
:104E60000378F32B01D1002907DA20466FF0030104
:104E700002F034F86FF00300F8BDFFF79FFF002841
:104E8000FAD186B13146432001F0CCFD40B1074B49
:104E90005E692046314601F061FB756286F8237039
:104EA0006FF00100E8E76FF00200E5E7380400204A
:104EB0002DE9F041064620B10378F32B01D10029FA
:104EC00009DA6FF00301304602F008F86FF00305CD
:104ED0002846BDE8F08100F10C0353E8002F42EAB8
:104EE000010543E8005000B1F7E7B4681CB920465B
:104EF00001F0CEFBECE794F82320616AD4F8088037
:104F00003046FFF75BFF074678B194F823309B07E4
:104F100056BF656A054620EA0505204601F039FBC3
:104F200000223946204601F0D5FC4446DEE7000069
:104F300008B50246EFF3058333B100206FF0050199
:104F400001F0CCFF002008BDFFF7BCFE0028F4D123
:104F5000DFF808C0104600DFF5E700BFDD4C0100B8
:104F600038B502460D46EFF305834BB192B96FF0A9
:104F70000301104601F0B2FF6FF00304204638BD74
:104F8000FFF7A0FE0028F1D1DFF830C0104600DFA7
:104F90000446F3E71378F32BE9D1002DE7DB02F1A8
:104FA0000C0353E8001F41EA050443E8004000B148
:104FB000F7E7104601F0D0F9E0E700BFB14E01007D
:104FC000F8B504460E4617461D46EFF3058343B178
:104FD0008CB920466FF0030101F080FF6FF00300F1
:104FE000F8BDFFF76FFE0028F2D1DFF82CC0204695
:104FF0002B4600DFF4E72378F32BEAD1002DE8D12C
:10500000002EE6DB3A4631462046FFF7D7FE002861
:1050100008BF6FF00200E3E7554E010008B50246F5
:10502000EFF305833BB110466FF0050101F056FF29
:105030006FF0050008BDFFF745FE0028F3D1DFF84B
:1050400008C0104600DFF5E7554D01007047704776
:10505000EFF310832BB9EFF31180003818BF012054
:105060007047012070470000064BDA6A3AB1D069F8
:105070005B6C1BB11B69984228BF184670474FF004
:10508000FF30F5E738040020014BD868704700BFB7
:105090003804002070B5464C237A012B00F085803F
:1050A00033B14FF0FF3001F00DFF4FF0FF3070BD16
:1050B000404DD5E90B61EB68E3652B8AA4F85430C9
:1050C0003046AB68236400F0ADF908B1C4F88060E5
:1050D000D5E90561304600F0A5F908B9D4F880603B
:1050E0006667D5E90761304600F09CF908B9D4F845
:1050F0008060A667D5E90961304600F093F908B9E8
:10510000D4F88060E6676E6B3EB1D6E90223316861
:10511000304600F0F1F9C4F88460AE6B3EB1D6E9D8
:1051200002233168304600F0E7F9C4F88860EE6B7E
:105130003EB1D6E902233168304600F0DDF9C4F80B
:105140008C602E6C3EB1D6E902233168304600F007
:10515000D3F9C4F890606E6C3EB1D6E90223316891
:10516000304600F0C9F9C4F89460AE6C3EB1D6E99F
:1051700002233168304600F0BFF9C4F89860EE6C45
:105180003EB1D6E902233168304600F0B5F9C4F8E3
:105190009C602D6D3DB1D5E902232968284600F0B9
:1051A000ABF9C4F8A0500123237200207FE700BFB1
:1051B000380400203891020070B5274C237A012B67
:1051C00007D06FF0060001F07DFE4FF0FF35284656
:1051D00070BD01F069FC10B94FF0FF30F3E71F4AD2
:1051E000FF2382F8223092F8223063F0FF03DB4382
:1051F00004D1D268C2F30222531C08E0D268B3FA89
:1052000083F3C3F12003C2F302229342F4D9FE22B6
:1052100002FA03F3124E114A12497068DBB2D377D7
:1052200001F0ACFE05460028D6D101F0FBFE20615E
:1052300001F0E4FE0C4801F0A3F901F021FA336813
:10524000DB074CBF0223032383F31488BFF36F8F64
:1052500002232372BBE700BF3804002000ED00E00A
:1052600038910200474C01005404002010B50F4C47
:10527000237A022B13D101F0C9FE01236372BFF31D
:105280004F8F0B4A5168C90042BF4FF00061516017
:10529000A37204232372BDE81040FFF7E5BE6FF050
:1052A000070001F00FFE002010BD00BF38040020F1
:1052B00000ED00E038B51D4C237A042B054634D1AF
:1052C000FFF7D2FEE26A85422CBF00F1FF332B4686
:1052D00012B1D069C01AD061626C12B11069C01AE3
:1052E0001061E26813441544E360E3689D4213D102
:1052F00002230020237201F0CBF900236372BFF375
:105300004F8FA27A22B1A372094B4FF080525A609C
:10531000BDE8384001F072BE0133E36001F076F978
:10532000236D002BE1D09847DFE738BD380400201B
:1053300000ED00E0704738B504460D46FFF786FEE5
:1053400029462046BDE8384001F07EBD08B5FFF78C
:10535000F1FFEFF3058333B16FF0050001F0B2FD0B
:105360006FF0050008BDFFF773FE0028F4D1DFF8E9
:1053700008C000DFF6E700BF9550010008B5EFF365
:10538000058333B16FF0050001F09CFD6FF005005F
:1053900008BDFFF75DFE0028F4D1DFF808C000DF8C
:1053A000F6E700BFB951010008B5EFF305832BB153
:1053B0006FF0050001F086FD002008BDFFF748FEF4
:1053C0000028F5D1DFF804C000DFF6E76D520100D8
:1053D00008B50246EFF305832BB1BDE808406FF036
:1053E000050001F06FBDFFF733FE0028F5D1DFF8AF
:1053F00008C0104600DF08BDB552010008B5EFF344
:10540000058313B1054BD86808BDFFF721FE0028BE
:10541000F8D1DFF80CC000DFF6E700BF3804002049
:105420008950010010B5034688B1084310F0070009
:105430000DD117290AD9196008391022CC189C609F
:105440005A60585099684A60D860012010BD002009
:10545000FCE770B5034668B361B3032A2AD80F315D
:1054600021F0070600F10804214624684D68601AFF
:1054700025F00305401B864203D920680028F3D19C
:1054800070BD5D68186835445D600344083B58682A
:10549000854288BF5D604B6832431BB94A6001F1A9
:1054A0000800EDE723F00303C818CC504260086001
:1054B0000830E5E70020E3E710B5034680B1C9B145
:1054C000A1F1080400F108020021A24209D15068AC
:1054D00020F003045868001B586041B95160012056
:1054E00010BD106811460028FAD00246EDE7136897
:1054F0000B60F4E70846F3E730B5C0B189B1C2B13B
:10550000CBB10024C0E9014202FB01F41D19016086
:10551000C360436105611846013904D1A41A1951C9
:105520000121084630BD851805602846F4E701468C
:10553000F7E71146F5E71946F3E710B5034608B952
:10554000002010BD00F1140252E8000F10B9BFF3A3
:105550002F8F04E0016842E8001404B1F4E700284A
:10556000EED0043353E8002F511C43E8001404B17B
:10557000F8E7E6E730B5F0B1C3688B421BD80369A2
:105580008B4218D900F114031A680A60BFF35F8FC9
:1055900053E8002F0C689442F6D143E8001505B19A
:1055A000F2E7043050E8003F5A1E40E8002101B104
:1055B000F8E7002030BD6FF00300FBE7EFF3108346
:1055C0002BB9EFF31180003818BF0120704701207C
:1055D0007047D1E9013223B19A608A681AB15360E9
:1055E0007047C262F9E70363704700002DE9F84F86
:1055F0008946074638B131B1B0FA80F1B9FA89F37A
:105600000B441F2B08DC6FF00301002001F07CFC31
:1056100000242046BDE8F88F09F1030828F00308AC
:1056200008F10C0808FB00FB002A5AD09468D2F855
:1056300000A0D2E904653CB1A10702D1D368332BA5
:105640000DD86FF00801E0E7D368002BF9D126B33D
:10565000B20701D1AB4522D96FF00901D5E7B6B940
:10566000002DF9D12A4B0022D86F5946FFF7F1FEE1
:105670000646002844D13DB1254BD3F8A000214671
:10568000002838D0FFF776FF6FF00401BDE7B307BD
:10569000E2D1AB45E0D800250DE0002DDCD11C4B5C
:1056A000D3F8A00000B3FFF748FF04460028EBD072
:1056B0000125002ED6D0FA2323700023C4E90993D4
:1056C000C4E90B33A36042463346A570C4F804A076
:1056D000394604F10C00FFF70FFF0D4B0D4A1A6716
:1056E00097E792461646DAE7D3F880000122342184
:1056F000FFF7AFFED9E7D3F88000FFF7DDFEC3E781
:105700005A4600210DF09CFD45F00205D3E700BF8D
:1057100038040020A557010010B500F1280353E814
:10572000002F12B9BFF32F8F04E0511E43E800147D
:1057300004B1F4E70AB9002010BDC06A01220028B4
:10574000F9D0811CD1E84F3FC1E8442F04B1F9E7FB
:10575000DBB2002BF0D08068F1E7036B30B5E3B12A
:10576000CD780024DA78AA420FD31A46C1E9012481
:105770008AB19160A4B16160283050E8003F5A1CA2
:1057800040E8002101B1F8E730BD5A681C46002A04
:10579000ECD01346E6E7C162ECE7C1E90133C16230
:1057A0000163E9E7F8B5877804468FB3C568014619
:1057B00000272846FFF70DFF277005F10C0420464F
:1057C000FFF7D8FEAB68002B48D02046FFF7B5FEA8
:1057D0000446002842D0284600F0D2FE3A4606464B
:1057E000394601F077F8304600F040FF6A6A816878
:1057F000064604F10C000DF025FCF9232370A77078
:10580000F368E37021462846BDE8F840FFF7A5BFDE
:105810008568AB68002BF5D05B78832BF2D12846E6
:1058200000F0AEFE3A460646394601F053F83046DF
:1058300000F01CFF06466A6A806804F10C010DF056
:1058400001FCF3680BB1E2781A7000232370214643
:1058500005F10C00BDE8F840FFF78CBEF8BD000074
:105860002DE9F0410E4617469846044618B10378D4
:10587000FA2B00D141B920466FF0030101F044FB3F
:105880006FF00300BDE8F0818368BBB15B78832BC8
:1058900014D100F075FE01220546002101F01AF82E
:1058A000284600F0E3FE0546626A806831460DF046
:1058B000C9FBEB6803B11F700020E3E704F10C00A3
:1058C000FFF73BFE054670B13146626A0C300DF0C1
:1058D000B9FBF9232B700023AB70EF7029462046EB
:1058E000FFF73BFFE8E7B8F1000F11D041469320E6
:1058F00001F098F810B96FF00100C3E7064B20469D
:10590000596900F02BFEEFF30983C3E90267F2E760
:105910006FF00200B6E700BF380400202DE9F04127
:105920000F4616469846044618B10378FA2B00D164
:1059300041B920466FF0030101F0E6FA6FF0030071
:10594000BDE8F081FFF7E8FE054600283AD00146A1
:105950002046FFF73EFE626A05F10C0138460DF065
:1059600071FB0EB1EB783370002704F10C062F7039
:1059700029463046FFF7FEFDA3680BB90020DFE79C
:105980003046FFF7DAFD05460028F7D0204600F044
:10599000F7FD39460646012200F09CFF304600F034
:1059A00065FE626A8168064605F10C000DF04AFB4F
:1059B000F9232B70AF70F368EB7029462046FFF790
:1059C000CCFEDBE7B8F1000F11D04146832001F097
:1059D00029F810B96FF00100B2E7064B204659696B
:1059E00000F0BCFDEFF30983C3E90276F2E76FF044
:1059F0000200A5E73804002008B5064B08219A6E7E
:105A0000D86EFFF7F3FD044BD864B0FA80F040097C
:105A1000404208BD38910200380400202DE9F041D1
:105A200006460F4690461C46EFF305834BB196B9E8
:105A300030466FF0030101F067FA6FF00300BDE834
:105A4000F081FFF7BBFD0028F1D1DFF84CC03046F4
:105A5000234600DFF3E73378FA2BE9D1002FE7D0B4
:105A6000002CE5D106F10C00FFF767FD054680B17B
:105A7000726A39460C300DF0E5FAF9232846C5E97B
:105A800001762B70AC7085F8038000F065FC204631
:105A9000D5E76FF00200D2E761580100F8B504467F
:105AA0000F4616461D46EFF3058343B18CB92046D9
:105AB0006FF0030101F028FA6FF00300F8BDFFF763
:105AC0007DFD0028F2D1DFF848C020462B4600DFDC
:105AD000F4E72378FA2BEAD1002FE8D0002DE6D1A5
